:100000000C942A000C9447000C9447000C94470071
:100010000C9447000C9447000C9447000C94470044
:100020000C9447000C9447000C9447000C94470034
:100030000C9447000C9447000C9447000C94470024
:100040000C9447000C9447000C9447000C94470014
:100050000C94470011241FBECFE5D4E0DEBFCDBF16
:1000600010E0A0E6B0E0E6E4F1E002C005900D92F9
:10007000A036B107D9F710E0A0E6B0E001C01D92AC
:10008000A636B107E1F70E9449000C94A1000C9438
:1000900000000F931F93CF93DF931ABA8FEF84BBA7
:1000A00080E88BBBC0E0D0E008EC10E01DC0CF9929
:1000B000FECF2196CE016AE070E00E947A0065BB17
:1000C00025B3CE016AE070E00E947A0034E0880F28
:1000D000991F3A95E1F7282B25BB88EE93E0F801AC
:1000E0003197F1F70197D9F7C431D10504F3C0E096
:1000F000D0E0FACF97FB092E07260AD077FD04D06F
:100100000CD006D000201AF4709561957F4F0895A9
:10011000F6F7909581959F4F0895AA1BBB1B51E15F
:1001200007C0AA1FBB1FA617B70710F0A61BB70B67
:10013000881F991F5A95A9F780959095BC01CD010C
:060140000895F894FFCFC2
:00000001FF
